:1000000012C03AC02BC02AC029C028C027C026C0B1
:1000100025C096C023C022C021C020C0CEC01EC0B3
:100020001DC01CC01BC011241FBECFE5D4E0DEBF25
:10003000CDBF10E0A0E6B0E0E8EAF2E002C0059033
:100040000D92A036B107D9F710E0A0E6B0E001C0EC
:100050001D92A736B107E1F73CD024C1D1CF89B7B3
:10006000816089BF85E083BF12BE089589E185BDA7
:100070008EE683BD14BC08951F920F920FB60F92A7
:1000800011242F933F934F935F936F937F938F939D
:100090009F93AF93BF93EF93FF938BB78F7B8BBFF0
:1000A00080E0F7D089B7816089BF85E083BF12BE49
:1000B000FF91EF91BF91AF919F918F917F916F9140
:1000C0005F914F913F912F910F900FBE0F901F9016
:1000D0001895FF920F931F938EE087BBC09A8A9862
:1000E000929AA4D08BEC86B980E687B985B78260F6
:1000F00085BF789481E0CDD089E1F82E0EE611E03D
:10010000B09904C080916000882381F0B09BF8CF43
:100110008BB78F7B8BBF15BC80E0BBD0109260008B
:10012000B099F4CF80916000882381F7A9D0F5BC05
:1001300003BD14BC8BB780648BBF10936000E0CF0D
:100140001F920F920FB60F9211242F933F934F934C
:100150005F936F937F938F939F93AF93BF93EF932F
:10016000FF93809162009091630020916600019658
:100170009093630080936200019730E02F5F3F4FC0
:100180008217930748F0109263001092620080E09B
:1001900077D013BE10926000FF91EF91BF91AF91A5
:1001A0009F918F917F916F915F914F913F912F918F
:1001B0000F900FBE0F901F9018951F920F920FB6C1
:1001C0000F9211242F933F934F935F936F937F93DD
:1001D0008F939F93AF93BF93EF93FF93E091610051
:1001E000F0E085B1EC59FF4F808384E690E030D099
:1001F000809161008F5F80936100833018F01092CE
:10020000610080E0805A87B9369AFF91EF91BF91E3
:10021000AF919F918F917F916F915F914F913F919E
:100220002F910F900FBE0F901F9018958FB5816F73
:100230008FBD8FB58D7F8FBD8EB589608EBD8EB51C
:10024000897E8EBD8CED8ABD1BBC88BD19BC08950E
:10025000AC0120E0FA01E20FF11DE0818E2F855103
:10026000873C38F4222319F4EABD21E0F3CF213092
:1002700029F0222311F421E0EDCF0895E8BD08957F
:10028000882311F4B9980895813009F00895BA9837
:100290000895882311F4B99A0895813009F00895DA
:0802A000BA9A0895F894FFCF0B
:00000001FF
